:100000009EC70000D4C70000D2C70000D0C70000C0
:10001000CEC70000CCC70000CAC70000C8C7000098
:10002000C6C70000C4C700000C94741D0C94BB210B
:100030000C94622CBCC70000BAC70000B8C700000F
:10004000B6C70000B4C70000B2C70000B0C70000C8
:10005000AEC700000C945C1EAAC70000A8C7000031
:10006000A6C70000A4C70000A2C70000A0C70000E8
:100070009EC700009CC700009AC7000098C70000F8
:1000800096C7000094C7000092C7000090C7000008
:100090008EC700008CC700008AC7000088C7000018
:1000A00086C7000084C7000082C70000050109025E
:1000B000A10185020901A1000509190129081500FE
:1000C0002501950875018102050109300931158165
:1000D000257F95027508810609381581257F9501D0
:1000E00075088106050C0A38021581257F95017572
:1000F000088106C0C005010980A101850319012AF4
:10010000B700150126B700950175108100C0050CD8
:100110000901A101850419012AA002150126A002E6
:10012000950175108100C005010906A1018506052C
:100130000719E029E71500250195087501810205D9
:1001400007190029EF1500250195F07501810205B9
:10015000081901290595057501910295017503910D
:1001600001C00660FF0961A1010962150026FF00B8
:100170009520750881020963150026FF00952075FA
:10018000089102C005010906A101050719E029E748
:1001900015002501950875018102950175088101F9
:1001A0000507190029FF150026FF0095067508812F
:1001B000000508190129051500250195057501910E
:1001C00002950175039101C00000000000000000CD
:1001D000000000000000000000000000000000001F
:1001E0000000000000000000000000007E0F00D4AE
:1001F000FFFFFFC7000000780000000000000000C3
:100200002A2B280000000000000000000000000071
:1002100000000029000000002C1E3420212224347C
:100220002627252E362D3738271E1F20212223244E
:1002300025263333362E37381F0405060708090AEA
:100240000B0C0D0E0F101112131415161718191A86
:100250001B1C1D2F3130232D350405060708090A04
:100260000B0C0D0E0F101112131415161718191A66
:100270001B1C1D2F3130354C00DA0281FFD9F1DB18
:1002800020A4A62EAF00A0C0D30000A1C8D30000B8
:10029000AED580A81F408D1420000001010101018E
:1002A000010101010202020202020202020303032F
:1002B00003030303030404040404040405050505FF
:1002C00005060606060607070707070808080809BF
:1002D0000909090A0A0A0B0B0B0C0C0C0D0D0D0E6B
:1002E0000E0E0F0F0F101011111112121313141400
:1002F000151516161717181819191A1A1B1B1C1D75
:100300001D1E1E1F202021222223242425262627CD
:100310002829292A2B2C2D2D2E2F303132323334FF
:1003200035363738393A3B3C3D3E3F404142434405
:1003300045464748494A4C4D4E4F505153545556E7
:1003400058595A5B5D5E5F616264656668696B6C93
:100350006D6F7072737577787A7B7D7E808283850E
:1003600087888A8C8E8F91939596989A9C9EA0A24E
:10037000A3A5A7A9ABADAFB1B3B5B7BABCBEC0C258
:10038000C4C6C9CBCDCFD1D4D6D8DBDDDFE2E4E71C
:10039000E9EBEEF0F3F5F8FAFDFF00AF00AE000078
:1003A000000000000080C06020301018080804041D
:1003B000040202020202020201010101020202021F
:1003C00002020204040408081810302060C08000F3
:1003D000000000000000000000000000000000001D
:1003E000000000000000000000000000000000000D
:1003F00000000000000000000000000000000000FD
:1004000000000000000000000000000000000000EC
:1004100000000000000000000000000000000000DC
:1004200080F0FC0E030100F8F8F8383838F0F0E0FE
:1004300000C0E0F07038383870F0E0C00018F8F80C
:10044000F81800C0E0F07038383870F0E0C00103F0
:100450000EFCF88000000000FF00000000F8F8F833
:1004600080C0E0F078381800F8F8F8B8B8B8F8F8B4
:10047000700060607078F8F8F800E0F0F0B8B8B894
:10048000B8B8300080808080808000E0F0F8383894
:1004900038F8F0E00060607078F8F8F800000000CC
:1004A000010F3F70C080001F1F1F1C1C1C0F0F0777
:1004B0000003070F0E1C1C1C0E0F070300181F1F44
:1004C0001F180003070F0E1C1C1C0E0F070380C013
:1004D000703F0F0100000000FF000000001F1F1F01
:1004E0000103070F1E1C18001F1F1F1D1D1D1F1FAE
:1004F0000E00000000001F1F1F00070F0F1D1D1D15
:100500001F1F0F0001010101010100070F1F1C1C2B
:100510001C1F0F0700000000001F1F1F000000002D
:100520000000000000010306040C08181010202031
:1005300020404040404040408080808040404040DB
:10054000404040202020101018080C040603010031
:10055000000000000000000000000000000000009B
:10056000000000000000000000000000000000008B
:10057000000000000000000000000000000000007B
:10058000000000000000000000000000000000006B
:10059000000000000000000000000000000000005B
:1005A000000000000000000000000000000000004B
:1005B00080C0E0F0F0F0F0F0F0F0F0F0F0F0F0F0EB
:1005C000F0F0F0E0C080000000000000000000003B
:1005D000000000000000000000000000000000001B
:1005E000000000000000000000000000000000000B
:1005F00000000000000000000000000000000000FB
:1006000000000000000000000000000000000000EA
:1006100000000000000000000000000000000000DA
:10062000000000000000000000000000000000FFCB
:10063000FFFFFFFFFFFFF7F1010100000000FCFFDB
:10064000FFFFFFFFFFFFFF000000000000000000B1
:10065000000000809E9E9E9E8686868686C6FEFE42
:10066000FE7E00000000000000000000000000000E
:100670000000000000868686868686868686F6FED0
:10068000FEFE0E0000000000000000000000000060
:1006900000000000C0FCFEFE3E02000080FEFEFEE8
:1006A0007E0000000000000000000000000000FFCD
:1006B000FFFFFFFFFFFFFF030000000000FEFFFF42
:1006C000FFFFFFFFFFFFFF00000000000000000031
:1006D0000000007F7F7F6F616161616161616161C5
:1006E00021000000000000000000000000000000E9
:1006F00000000060606161616161616161797F7FBB
:100700007F07000000000000000000000000000063
:100710000000000E0F0F0F0D0C0C0C4C7F7F7F7F25
:100720000C0C0000000000000000000000000000B1
:100730000103070F0F0F0F0F0F0F0F0F0F0F0F0FEB
:100740000F0F0F0703010000000000000000000071
:100750000000000000000000000000000000000099
:100760000000000000000000000000000000000089
:100770000000000000000000000000000000000079
:100780000000000000000000000000000000000069
:100790000000000000000000000000000000000059
:1007A0000000000000000000000000000000000049
:1007B0000000000000000000000000000000000039
:1007C0000000000000000000000000000000000029
:1007D0000000000000000000000000000080C0E0F9
:1007E000F0F0F0F0F0F0F0F0F0F0F0F0F0F0F0F009
:1007F000E0C08000000000000000000000000000D9
:1008000000000000000000000000000000000000E8
:1008100000000000000000000000000000000000D8
:1008200000000000000000000000000000000000C8
:1008300000000000000000000000000000000000B8
:10084000000000080EFEFEFFFFFFFF030000000097
:10085000000000000000000000000000FFFFFFFF9C
:100860007F6161616179797979793901010181FF6C
:10087000FFFFFFFF0000000000000000000000007C
:100880000000868686868686868686F6FEFEFE0EB4
:100890000000000000000000000000000000000058
:1008A00000C0FCFEFE3E02000080FEFEFE7E000058
:1008B0000000000000000000000000000000000038
:1008C00000000000FCFFFFFFFFFF01000000000030
:1008D000000000000000000000000000FFFFFFFF1C
:1008E000808080909E9E9E9E9E9E9E9E9EDEFFFF8E
:1008F000FFFFFFFF000000000000000000000000FC
:1009000060606161616161616161797F7F7F070022
:1009100000000000000000000000000000000000D7
:100920000E0F0F0F0D0C0C0C4C7F7F7F7F0C0C00FB
:1009300000000000000000000000000000000000B7
:1009400000000000000000000000000000000000A7
:10095000000000000000000000000000000103078C
:100960000F0F0F0F0F0F0F0F0F0F0F0F0F0F0F0F97
:10097000070301000000000000000000000000006C
:100980000000000000000000000000000000000067
:100990000000000000000000000000000000000057
:1009A0000000000000000000000000000000000047
:1009B0000000000000000000000000000000000037
:1009C0000000000000000000000000000000000027
:1009D0000000000000000000000000000000000017
:1009E0000000000000000000000000000000000007
:1009F00000000000000000000000000000000000F7
:100A00000000000000000000000080C0E0F0F0F0F6
:100A1000F0F0F0F0F0F0F0F0F0F0F0F0F0E0C08086
:100A200000000000000000000000000000000000C6
:100A300000000000000000000000000000000000B6
:100A400000000000000000000000000000000000A6
:100A5000080EFEFEFFFFFFFF030000000000000085
:100A600000000000000000000000000000809E9ECA
:100A70009E9E8686868686C6FEFEFE7E000000005E
:100A8000000000000000000000FFFFFFFFFFFF79F3
:100A9000797979797979797909010101F1FFFFFF94
:100AA000FF00000000000000000000000000C0FC8B
:100AB000FEFE3E02000080FEFEFE7E000000000002
:100AC0000000000000000000000000000000000026
:100AD00000FCFFFFFFFFFF0100000000000000001E
:100AE000000000000000000000000000007F7F7F89
:100AF0006F616161616161616161210000000000FD
:100B0000000000000000000000FFFFFFFF9F9F9E0D
:100B10009E9E9E9E9E9E9E86808080F8FFFFFFFF89
:100B2000FF0000000000000000000000000E0F0F9A
:100B30000F0D0C0C0C4C7F7F7F7F0C0C0000000015
:100B400000000000000000000000000000000000A5
:100B50000000000000000000000000000000000095
:100B60000000000000000000000000000000000085
:100B70000000000000000000000000000000000075
:100B8000000000000000000000000103070F0F0F2D
:100B90000F0F0F0F0F0F0F0F0F0F0F0F0F07030187
:100BA0000000000000000000000000000000000045
:100BB0000000000000000000000000000000000035
:100BC0000000000000000000000000000000000025
:100BD0000000000000000000000000000000000015
:100BE0000000000000000000000000000000000005
:100BF00000000000000000000000000000000000F5
:100C000000000000000000000000000000000000E4
:100C100000000000000000000000000000000000D4
:100C200000000000000000000000000000000000C4
:100C30000000000000000080C0E0F0F0F0F0F0F0F4
:100C4000F0F0F0F0F0F0F0F0F0F0E0C08000000024
:100C500000000000000000000000000000080EFE80
:100C6000FEFFFFFFFF030000000000000000000087
:100C700000000000000000000000809E9E9E9E86F6
:100C800086868686C6FEFEFE7E000000000000000E
:100C9000000000000000000000000000868686863C
:100CA0008686868686F6FEFEFE0E000000000000A8
:100CB000000000000000FFFFFFFFFF3F030101C134
:100CC000FDFFFF7F01010181FFFFFFFFFFFF00002C
:100CD0000000000000000000000000000000FCFF19
:100CE000FFFFFFFF01000000000000000000000007
:100CF000000000000000000000007F7F7F6F616146
:100D0000616161616161612100000000000000001B
:100D1000000000000000000000006060616161618F
:100D200061616161797F7F7F070000000000000042
:100D3000000000000000FFFFFFFFF1F0F0F0F2F311
:100D4000F3F3B380808080F3F3FFFFFFFFFF000029
:100D50000000000000000000000000000000000093
:100D60000000000000000000000000000000000083
:100D70000000000000000000000000000000000073
:100D80000000000000000000000000000000000063
:100D90000000000000000000000000000000000053
:100DA0000000000000000000000000000000000043
:100DB000000000000000000103070F0F0F0F0F0FCE
:100DC0000F0F0F0F0F0F0F0F0F0F07030100000082
:100DD0000000000000000000000000000000001EF5
:100DE000001F0020002100AE002200230024002567
:100DF0000001522600270052002800A8002352506C
:100E00000051004F0000000100010001000100013D
:100E10000001000100010001000252010001000177
:100E200000010001000100010001000100000001BB
:100E300000010001000100010001000100010001AA
:100E40000003520100010001000100010001000146
:100E5000000100010000004B784C780100007C018B
:100E600000477848780100010000524278437845F5
:100E700078010001000100497846784A780000AB0B
:100E800000AC004B004E00A900AA000100010001C7
:100E9000000100010001000100010001000100014A
:100EA0000001000100010001000100010001000932
:100EB000025B00030100A0FA090400000103010124
:100EC00000092111010001224400070581030800E7
:100ED00001090401000203000000092111010001C1
:100EE00022220007058203200001070503032000DA
:100EF00001090402000103000000092111010001A1
:100F000022B6000705840320000112010002000040
:100F1000000810D0011601000102000110034B006F
:100F20004200310036002D003000310000000A037D
:100F300044004F0049004F0000000403090411243D
:100F40001FBECFEFDAE0DEBFCDBF04B603FE18C090
:100F50008091EB059091EC05A091ED05B091EE0527
:100F60008730904BA740B04B59F41092EB0510928C
:100F7000EC051092ED051092EE05E0E0F8E309951E
:100F800011E0A0E0B1E0E8E4FCE602C005900D92BB
:100F9000A63EB107D9F725E0A6EEB1E001C01D924B
:100FA000AB3EB207E1F70E94952C0C94223628C87C
:100FB000FF920F931F93CF93DF932091E905309118
:100FC000EA05295E3340A901435F5D4F413052403D
:100FD000E8F040E052E0421B530B6091E703709150
:100FE000E803D901A751BC4F420F531F821B930B3B
:100FF000C1E0D0E02417350760F07093E8036093F8
:10100000E703CDB7DEB7E5E00C9456354DE052E08E
:10101000E4CFFC01E20FF31FF490FD91FF16A1F065
:101020008D0101501109F801F082F90115E0F695E2
:10103000E7951A95E1F78E0102C0000F111FEA959E
:10104000E2F7F801602B7F2B2F5F3F4FD3CFE0916A
:10105000E503F091E603309739F00284F385E02D43
:10106000309711F060E209950895482F2091AF0361
:101070009091760357E0291302C080E0089530E094
:10108000529FF001539FF00D1124E958FC4F8181CC
:10109000681306C08081481303C085818111EECF9B
:1010A0002F5F3F4F2770E7CFE8EDF0E080818E7F24
:1010B00080831092E2001092DA001092E100A0EE1C
:1010C000B0E08C9181608C9380818F77808319BC94
:1010D000A7EDB0E08C918E7F8C9380818F7E808392
:1010E0001092600308952091E4003091E50085E6B8
:1010F0009091EC0090FF06C09091E80090FF06C030
:1011000080E008959091E80092FDFACF90916C03F1
:10111000992391F0953091F09091EB0095FD10C0DE
:101120004091E4005091E5002417350709F3815000
:101130009A01F1F684E0089582E0089583E008952D
:1011400081E0089580916E0387FF13C08091E800CD
:1011500082FF06C08091E8008B778093E80004C08E
:1011600080916C038111F2CF089580916C038823E4
:10117000D9F38091E80080FFF8CF8091E8008E7766
:10118000ECCF982F9093E900242F762F50E0891709
:1011900031F07091EC002091ED005091F00021FDB4
:1011A00007C09F5F973071F78093E90081E0089551
:1011B0003091EB003E7F3093EB003091ED003D7FAE
:1011C0003093ED003091EB0031603093EB00709381
:1011D000EC002093ED005093F0002091EE0027FDED
:1011E000E0CF80E00895B0E0A0E0E9EFF8E00C94F3
:1011F0003735C8EDD0E088818F7E8883E7EDF0E059
:1012000080818160808384E082BF81E0809360037D
:1012100088818E7F888302EE10E0F80110821092A0
:10122000DA0081EEC82ED12CF601108288818F77EA
:10123000888388818068888388818F7D888319BCB2
:1012400010926C0310926D0310926B0310926A035C
:1012500090EEE92EF12CF70180818B7F80838881CD
:101260008160888342E060E080E08BDFF60180816E
:101270008E7F8083F8018081816080838081886097
:101280008083F70180818E7F80838881806188835D
:10129000CDB7DEB7E8E00C945335FC0180917403C0
:1012A0009091750386179707A0F06115710529F4D1
:1012B0009091E8009E779093E80090E061157105A9
:1012C00051F4911108C08091E80082FF35C080E0A0
:1012D0000895BC01F2CF80916C038823C9F1853059
:1012E000C9F18091E80083FD31C08091E80082FD62
:1012F000EACF8091E80080FFE1CF2091F300809158
:10130000F200322F282F6115710519F028303105B0
:1013100058F091E02830310509F090E02091E80084
:101320002E772093E800CACF81918093F10061501D
:1013300071092F5F3F4FE7CF80916C03882341F005
:10134000853041F08091E80083FFBDCF81E00895B2
:1013500082E0089583E008952FB7F89460915C03CC
:1013600070915D0380915E0390915F032FBF08959C
:1013700080911D01089590911E019130D1F49091BA
:10138000590397FF16C0E82FE695E695E695EE31EE
:10139000E0F4F0E0E051FE4F282F277081E090E06C
:1013A00001C0880F2A95EAF780959281892382836C
:1013B0000895E8EEF1E02EEE31E09281891301C04C
:1013C000128231962E173F07C1F70895A3E0B0E0CF
:1013D000ECEEF9E00C943D35209157033091580321
:1013E00028173907B1F09093580380935703E09181
:1013F000E503F091E603309761F00084F185E02D7C
:10140000309739F024E029839B838A83CE010196AB
:1014100009952396E2E00C945935A3E0B0E0E3E1AE
:10142000FAE00C943D35209155033091560328176E
:101430003907B1F09093560380935503E091E5038B
:10144000F091E603309761F00084F185E02D30974C
:1014500039F023E029839B838A83CE010196099585
:101460002396E2E00C945935E091E503F091E60310
:10147000309739F00190F081E02D309711F0099507
:10148000089580E00895282F269F020E20E0211D58
:101490001124822F089580914A0380FD16C081FD9A
:1014A00016C082FD16C0809149038823A1F08832BE
:1014B00080F428E0829FC001112468E270E00E945D
:1014C000AE35862F672B39F0089582E0089584E0C9
:1014D000089588E0089581E0089580914A0380FD91
:1014E00014C081FD14C082FD16C08091480388237A
:1014F00081F08E3180F420E5829FC00111246EE1DD
:1015000070E00E94AE35862F089584E1089588E248
:10151000089588E0089580E50895282F35EB23038A
:10152000C001112497FF04C080589109892F0895A4
:1015300080589F4FFBCFFC01EE0FFF1FE80FF91FF4
:10154000E85EFC4F6183408322830895E8E1F3E085
:10155000818360834283339693E0E834F907C1F7CF
:101560000895869A089590E06623A1F081579E4FD2
:10157000FC0120812F3F89F0E22FE295EF70F0E02F
:1015800080A190E02F7002C0959587952A95E2F78B
:101590008170089584579E4FEBCF80E0089590E0CE
:1015A0006623E9F081579E4FFC0180818F3FB1F0A7
:1015B000E82FE295EF70F0E041A18F7021E030E07C
:1015C000B90102C0660F771F8A95E2F7CB01962F0B
:1015D0009095942391A392A1892B82A30895845777
:1015E0009E4FE2CF90911203E92FF0E04091130358
:1015F0009F012F5F3F4F2370332742171306A9F037
:10160000EC5EFC4F282F2F7780818078822B60FB47
:1016100087F980839F5F93709093120380911003EA
:101620008F5F8093100381E0089580E00895BC01EE
:101630009FEF613E8EE1780740F49B0195E036957F
:1016400027959A95E1F798E0920F41E0E42FE90F92
:10165000FF27FF1F9F0135952795822F229FF001BD
:10166000239FF00DF00D11246E177F0738F49FEFC4
:10167000920F941758F78FEF840F08952F3FE9F3D7
:1016800041E0420FF6CF8091B403837011F01092C5
:1016900014018091B4038C7F8093B40308958091EA
:1016A000B403837011F4109214018091B4038C7F01
:1016B00081608093B4030895880F880F94E0980F99
:1016C000913108F090E10895EF92FF920F93970106
:1016D000201B31092F3F310519F010F02FEF30E0BA
:1016E0002095382F320F08F43FEF832F0F91FF9092
:1016F000EF900895EF92FF920F939701201B31090D
:101700002F3F310519F010F02FEF30E0322F3095D8
:10171000482F430F08F44FEF842F620F0F91FF9073
:10172000EF900895EF92FF920F93972F093438F4BA
:10173000B701601B71096F3F710519F010F06FEF71
:1017400070E0485F5F4F4131510540F0A901485FAB
:101750005F4F4131510510F06FEF70E06095482FF9
:10176000460F08F44FEF842F37FF02C02D5F3F4F25
:1017700035952795359527956091B503620F792F9B
:101780000F91FF90EF900895EF92FF920F931F93A8
:10179000E00EF11C890137FF03C011950195110975
:1017A00024E0000F111F2A95E1F70F3F110519F0F2
:1017B00014F00FEF10E09A0157FF03C03195219507
:1017C000310994E0220F331F9A95E1F72017310772
:1017D0000CF489010E0D1F1D0F3F110519F010F0BB
:1017E0000FEF10E00095282F200F08F42FEF822F25
:1017F0001F910F91FF90EF900895EF92FF920F933A
:10180000970195E0099F200D311D11242F3F3105CF
:1018100019F010F02FEF30E02095382F320F08F438
:101820003FEF832F0F91FF90EF9008951F93CF9379
:10183000DF93C62F172FD82F4F3F510519F010F007
:101840004FEF50E060E4842F80951DDE6C2F680F11
:10185000712F8D2FDF91CF911F910895CF93DF933B
:10186000D62FC72F4F3F510519F010F04FEF50E022
:10187000682F842F809507DE6D2F7C2FDF91CF910D
:1018800008951F93CF93DF93C62F172FD82FE42FE0
:10189000F0E0EE0FFF1FEB54FE4F8081821B87FDAF
:1018A000819568E1F0DD682F6C0F712F8D2FDF912E
:1018B000CF911F9108950F931F9310E0F801EE0F41
:1018C000FF1FEB54FE4F9081905797FD9195000FAD
:1018D000111FF801EF55FE4FE589E052FF0B8F0114
:1018E000000F111F0E0F1F1F2003F001219FF00D8D
:1018F000112428E330E0291B310997FD3395D901E4
:10190000AA0FBB1F2A0F3B1F4203D001439FB00DFC
:1019100011249F012A0F3B1F37FF02C021583F4F60
:10192000220F232F221F330B620F1F910F91089557
:101930000F931F93522F10E0F801EE0FFF1FEF558A
:10194000FE4FA589A052BB0B9D015203F001539F8E
:10195000F00D1124000F111FD801AB54BE4F0C9194
:101960000057110B40039001419F300D11242E0FA1
:101970003F1F37FF02C021583F4F220F232F221F46
:10198000330B620F1F910F910895E42FF0E0EE0FDB
:10199000FF1FEF55FE4F6589621B0895622F089562
:1019A0000F931F93CF93DF93162FD72FC82F022F9C
:1019B000E42FF0E0EE0FFF1FEB54FE4F64EE80814A
:1019C00062DD4C2F50E0282F30E0245E3F4F201B7B
:1019D000310937FF03C031952195310983E0220F8A
:1019E000331F8A95E1F7CA01821B930B97FD80E0B4
:1019F0006C2F49DD612F7D2FDF91CF911F910F91CA
:101A000008950F931F93CF93DF93162FC72FD82FCF
:101A1000022FE42FF0E0EE0FFF1FEB54FE4F64EEB9
:101A2000808131DD4C2F50E0282F30E0245E3F4F85
:101A3000201B310937FF03C031952195310983E01F
:101A4000220F331F8A95E1F7CA01821B930B97FD82
:101A500080E06C2F18DD612F782F8D2FDF91CF91D3
:101A60001F910F91089572CD089565CD08959091BD
:101A7000E102892B8093E102089581E090E02091BA
:101A8000B9032F3F11F090E080E08E579E4FFC018C
:101A900080818093B90381E0EACF81E090E02091DA
:101AA000B9032F3F11F090E080E08E579E4FFC016C
:101AB00080818093B90381E0DACFE4EBF3E0248105
:101AC00030E1231B08F420E0248381E0D0CFE4EB55
:101AD000F3E0248130E1230F08F42FEF248381E029
:101AE000C6CF9091B403937059F08093B50360937F
:101AF000B603493C08F048EC822F4093B703B7CFB8
:101B00000895E4EBF3E0438120E1421B08F440E058
:101B1000818121E0628190E0E4CFE4EBF3E0438156
:101B200020E1420F08F44FEF818121E0628190E0D3
:101B3000D8CFE4EBF3E0628120E1621B08F460E0BF
:101B4000818121E0438190E0CCCFE4EBF3E062813E
:101B500020E1620F08F46FEF818121E0438190E082
:101B6000C0CFE4EBF3E0818121E0438162818850C2
:101B7000990BB7CFE4EBF3E0818190E021E0438162
:101B800062810896AECF9091B403937049F08111B1
:101B900008C094609093B403862F1092140167CF0D
:101BA00008958E3110F09467F5CF880F880F982B29
:101BB000F1CF8091B40386958695815009F48DE12B
:101BC00061E0E1CF8091B403869586958F5F8E3179
:101BD00008F081E061E0D7CFE4EBF3E0908121E011
:101BE000922790831092140142CFFC019B01009731
:101BF00021F477FD2BC080E00895AC0197FF04C06D
:101C000044275527481B590BB901640F751F37FD31
:101C100010C0241B350BC901A5E0880F991FAA9598
:101C2000E1F70E94AE3580E2861BF7FF10C0819578
:101C30000895CB0165E0880F991F6A95E1F7BA0115
:101C4000621B730B0E94AE3580E6EECF80E80895EC
:101C50000F93CF93DF93D72FC82FC901BA01C5DFE8
:101C6000682F600F7D2F8C2FDF91CF910F910895FA
:101C70000F931F93CF93DF93162FD72FC82FC90130
:101C80002C2F201B022FBA01B0DF982F990F990F2C
:101C9000891B6C2F800FF7DB612F7D2FDF91CF9198
:101CA0001F910F9108950F931F93CF93DF93162FDA
:101CB000C72FD82FC901272F201B022FBA0195DF6C
:101CC000982F990F990F891B6C2F800FDCDB612FE8
:101CD000782F8D2FDF91CF911F910F910895E82FCD
:101CE00086FDE0952E2F2F7086FD2F5FE695E695F9
:101CF000E695E670F0E0E658FE4F9181929F902DB8
:101D0000212D112492959F702295207F922B208166
:101D1000920F87FD919580E8890F08950F931F9387
:101D2000CF93DF93D62F072F182FC42F822FD7DF03
:101D3000EC2FF0E0EE0FFF1FEB54FE4F9081905818
:101D4000890F87FD81956CE0880F9DDB682F6D0FF3
:101D5000702F812FDF91CF911F910F9108951F93C5
:101D6000CF93DF93C62F172FD82F822F8695B7DFFB
:101D7000805887FD81956CE0880F85DB682F6C0F9C
:101D8000712F8D2FDF91CF911F9108951F93CF93C6
:101D9000DF93D62FC72F182F822F8695A0DF80586C
:101DA00087FD8195612F880F6EDB6D2F7C2FDF9172
:101DB000CF911F91089540910C0150910D0125E0A4
:101DC00038E0429FC001439F900D529F900D112417
:101DD000875E994C90930D0180930C01890F0895B3
:101DE000CF93C82FE8DF8C9FC0011124892FCF919A
:101DF000089530E020E0869F080E211D969F200D5B
:101E0000311D1124290F311DC90108952091B803F6
:101E100030E1230F08F42FEF60E1822F90E0E9DF3B
:101E2000BC0188EB9BE00E94193590E080E00895AA
:101E3000B0E0A0E0EEE1FFE00C943535362F472FFF
:101E4000E82FF0E0E656FD4F71110AC0E4918E2FA5
:101E50002E2F6E2F722FCDB7DEB7EAE00C945135DE
:101E6000C72FD0E02491F22FE22EF12C56E0659F8F
:101E7000C00111240FEF10E0B8010E941935832F23
:101E800090E0880F991F35E5369FD001379FB00D40
:101E900011248A1B9B0B982F990F980F6801CC1A5D
:101EA000DD0ACE9CD001CF9CB00DDE9CB00D11247C
:101EB0008B2F499FA0011124452F55276801C41A73
:101EC000D50ACE9CA001CF9C500DDE9C500D112454
:101ED000E52F5801A91AB108AC9E6001AD9ED00C47
:101EE000BC9ED00C1124CD2CDD240C191D090E9D97
:101EF000E0010F9DD00D1E9DD00D112462307105A3
:101F0000B1F058F46115710579F06130710509F48B
:101F1000A0CFE22F2B2F852F9CCF6430710571F05D
:101F200048F066307105A9F7E22F2D2F92CFEB2FE5
:101F30008D2F8FCFEB2F822F252F8BCF2B2F8F2FF6
:101F4000ED2F87CFFF920F931F93CF93DF93C82F6F
:101F5000D0E0FE01EF55FE4F84A96823A1F0F09078
:101F6000B6030091B7031091B50383E039DF612F09
:101F700090EE899F600D11247F2D802F59DF472F10
:101F8000282FCE0172DDCDB7DEB7E5E00C945635D3
:101F9000A9E0B0E0EEECFFE00C942D359F838E833A
:101FA0008091200189DB492E2091BC032D83E82FED
:101FB000F0E0F987E887CF01880F991F9C012F5522
:101FC0003E4F6901EB52FE4FFC83EB8388858415FD
:101FD00048F081E09FE0941508F480E02996E2E162
:101FE0000C944935EB81FC818191FC83EB839091CA
:101FF00021018923E9F01091B5032090B60325ED66
:1020000033E03A8329838DEB682E83E0782E312CE0
:10201000512CFD81F51116C06091B703832D33DA81
:10202000612F722D05DF472F282F888599851DDDAB
:10203000288539852F5F3F4F3987288732E0C30EC7
:10204000D11CC4CFF30181913F01F601A488A81AE5
:10205000BB088588F3018781881A9908AA9CC0016A
:10206000AB9C900D900D1124889C9001899C300DA3
:10207000300D1124820F931F82309105E4F4082F54
:102080006091B80321E0620F08F46FEFE981FA81F3
:1020900081919191FA83E983ACDE7C019401A501E1
:1020A000612F722D832DEE81FF810995162F272E2A
:1020B0005394382EAECFBBDAE2CFB0E0A0E0E3E637
:1020C000F0E10C9435358C0180912001F5DAE92E90
:1020D000F82E2091B80331E0230F08F42FEF30E001
:1020E00050E040E06FEF7FEF80E090E00E94C1356C
:1020F0006901CF2DD0E0CF55DE4FFE1450F081E0C6
:10210000FFE0FE1508F480E0CDB7DEB7EAE00C94FE
:102110005135CE01815A91405C018CA990912101E9
:10212000892311F19091BC039150E92F092E000CE5
:10213000FF0BE454FC4F97FF1AC096016091B8035F
:1021400041E0640F08F46FEFC90153DEAC01609108
:10215000B5037091B6038091B703F801099568DE65
:10216000472F282FC50181DCF3942196C6CF8189A2
:10217000F8120BC0DF01AA0FBB1FAC5BB34059962E
:102180002D913C912C153D05C8F291503197D3CF3C
:10219000AF92BF92DF92EF92FF920F931F93CF9374
:1021A000DF937C018091200187DA092F182F60913D
:1021B000B8036695669521E0620F08F46FEF809191
:1021C000B0039091B10315DED82EC12FD0E0CF55CA
:1021D000DE4F101770F081E0003108F080E0DF91F1
:1021E000CF911F910F91FF90EF90DF90BF90AF9034
:1021F0000895CE01815A91405C018CA990912101F2
:10220000892379F06091B5037091B6038091B7038B
:102210002D2D412FF70109950BDE472F282FC501E2
:1022200024DC1F5F2196D5CFB0E0A0E0EAE1F1E128
:102230000C9432356C01809120013EDA992E182FD2
:102240006091B803669566958091B0039091B10353
:10225000D0DDF82E80E48F0D42DD90E8892E880EC7
:102260008F2D3DDD20E8722E780EC12FD0E0CF55A6
:10227000DE4F191550F081E0FFE0F91508F480E019
:10228000CDB7DEB7EDE00C944E35CE01815A9140CA
:102290005C018CA990912101892389F06091B5039B
:1022A0007091B6038091B703EF2C012F272D482D95
:1022B000F6010995BDDD472F282FC501D6DB1F5F2D
:1022C0002196D7CFB0E0A0E0E8E6F1E10C943335F9
:1022D0006C0180912001F0D9992E182F6091B803DC
:1022E00066958091B0039091B10383DD882EC12F54
:1022F000D0E0CE018F559E4F7C01CC0FDD1FCF5516
:10230000DE4F191550F081E09FE0991508F480E048
:10231000CDB7DEB7ECE00C944F35F701E15AF14050
:102320005F01F70184A9909121018923A1F02D89F2
:102330002052330B4C894057550B6091B503709177
:10234000B6038091B703082DF601099571DD472F7B
:10235000282FC5018ADB1F5FFFEFEF1AFF0A2296C5
:10236000D0CF1F93CF93DF93C82FD0E0FE01EF555E
:10237000FE4F84A9682371F01EDD182F80E830DD40
:102380007FE7780F612F8091B70352DD472F282F09
:10239000CE016BDBDF91CF911F91089580E008950E
:1023A000F894E82FE295EF70F0E031A1282F2F701C
:1023B00081E090E001C0880F2A95EAF7982F909568
:1023C000932391A392A1892B82A3789408958115D8
:1023D00020E59207C8F5811540E4940708F08DC008
:1023E000803E910518F58D3C910508F07EC0883A35
:1023F000910570F4853A910508F06EC08130910521
:1024000011F118F084309105F0F490E080E01BC0E9
:10241000833C9105D0F7885AE82FF0E0EE0FFF1FBC
:10242000E55DFE4F8081918194640895811550E2AD
:10243000950708F0B3C0811521E0920708F057C056
:10244000883E910510F70895803642E5940718F507
:10245000803452E5950708F05AC0803222E5920791
:1024600008F04EC0811542E5940708F47DC0282F7E
:102470002695269550E2259F90011124482F437000
:1024800081E090E002C0880F991F4A95E2F7822B05
:10249000932B9D680895803A52E5950760F4803843
:1024A00022E5920708F447C08F7190E0982F8827A3
:1024B000846F906A0895803C42E5940708F44EC00A
:1024C000803E52E5950708F0A0CF982F88278827EF
:1024D0009F71806F906A0895855AE82FF0E0E85D5B
:1024E000FE4F808190E0906408959065089520E00B
:1024F000392FA901482BCA0108959F70906A089549
:102500008F7190E0982F8827816F906A0895982F97
:10251000937021E030E002C0220F331F9A95E2F75A
:102520003C6886958695877040E2849FC00111249F
:10253000822B932B0895282F26952695277050E2FD
:10254000259F90011124482F437081E090E002C044
:10255000880F991F4A95E2F79A68EACF8F7190E049
:10256000982F8827906208959C0195E036952795CD
:102570009A95E1F72F7030E0322F2227482F4F71C4
:1025800050E084FF06C084E0440F551F8A95E1F7B0
:102590005527C9019069842B952B0895292F2F71F8
:1025A00099279062922B0895982F909580916103BE
:1025B000892380936103089580916103909126029D
:1025C000892B90912502992391F0892B90911E01DE
:1025D000913071F49091590397FF0AC09EE1E2EFA8
:1025E000F1E020E0915040F421111092250208956D
:1025F00096E0EAEEF1E0F5CF3191332399F32F5FC6
:10260000F1CF8091AF0390917603981301C00895A4
:102610008F5F8770FACFA82FA77023E096958795D4
:102620002A95E1F7FC01EE0FFF1FE80FF91FE60FF7
:10263000F71F50E040E080E0219130E00A2E02C018
:10264000369527950A94E2F721703327042E01C0AE
:10265000220F0A94EAF7822B4F5F5F4F43305105F8
:1026600059F70895292F943058F4853048F490E0B4
:1026700064E172E035E0239F800D911D1124CBCFE2
:102680002C5F223020F461E172E090E0F8CF80E02E
:102690000895262F277091E001C0990F2A95EAF737
:1026A00023E0769567952A95E1F7FB01EE0FFF1F72
:1026B000E60FF71FE40FF51F50E040E0682F70E0D1
:1026C0008191DF0111979B01042E02C03695279559
:1026D0000A94E2F7217021952827292328272C9393
:1026E0004F5F5F4F4330510559F70895282F862FCC
:1026F000943068F4253058F4622F70E025E0929F02
:10270000600D711D112444E152E0C3CF08959C5F18
:102710009230E0F7622F70E041E152E0F6CF809313
:1027200058020895982F92959F7020E011F0892FFC
:1027300024E0982F9695969511F02E5F892F982F6B
:10274000969509F02F5F822F0895A0E2B0E0EBEAA2
:10275000F3E10C943C35182FE5DFFE0133969EE142
:10276000DF011D929A95E9F79AEA99838A83CE014F
:1027700001960E942708812FA096E3E00C9458351B
:10278000E4DF8093E40208959091E40221E030E0D8
:10279000F90101C0EE0F8A95EAF7D90102C0AA0F2C
:1027A000BB1F6A95E2F7EA2B01C0220F4A95EAF7B0
:1027B000892F8E23E81303C0292B822FE1CF209588
:1027C0002923FBCF21E030E001C0220F8A95EAF7F0
:1027D00020958091E4028223D3CF909124028095AA
:1027E000892380932402282F277061F4891751F0E0
:1027F00090915A0392FF06C0869586958695E2DFF2
:1028000010922402089521E030E001C0220F8A9541
:10281000EAF78091E402822BB3CF0F931F93CF93FB
:10282000DF938B01EA0190916C03943061F5809302
:10283000E9008FEF9091E800815095FD06C095ED7D
:102840009A95F1F700008111F5CF8091E80085FF9E
:102850001AC00E947308811111C08091E80085FDA3
:1028600006C08091E8008E778093E800F2CFF801EF
:1028700081918F018093F100219779F78091E80091
:102880008E778093E800DF91CF911F910F9108958B
:1028900043E050E0BC0184E0C0CF46E050E0BC0122
:1028A00084E0BBCF40E250E0BC0184E0B6CFCF93E0
:1028B000DF93EC0148E050E0BC0181E0AEDF88E04E
:1028C000FE01A2E6B3E001900D928A95E1F7DF9157
:1028D000CF910895603229F4BC0140E250E082E0DB
:1028E0009CCF089581E08093E00080E28093D8003F
:1028F0001092C9008FE19EE40197F1F700C000003B
:1029000087E090EBDC018093EB059093EC05A093BE
:10291000ED05B093EE0588E19CE00FB6F894A8951C
:10292000809360000FBE90936000FFCF81B38F7BD8
:1029300091B390642FB7F894E8E1F3E033E0E83422
:10294000F30741F42FBF8FE594E00197F1F700C042
:1029500000000895319148E091BB000000C037FFAE
:1029600081BB330F000000C000C000C081BB00C0AD
:102970004A9591F7E3CF0F931F93CF93DF93843062
:1029800028F5633018F594E0699FE00111249CE07C
:10299000899FC00DD11D1124C753DF4F82E090E005
:1029A000442311F090E080E0632F022F142F8C0F4E
:1029B0009D1F0E94903583E090E0112311F081E08B
:1029C00090E0602F8C0F9D1F0E949035DF91CF917A
:1029D0001F910F9108951F93CF93DF93962F84300B
:1029E000E8F46430D8F44530C8F4632F122FC42FB4
:1029F000D0E0CC0FDD1F2AE0929FC00DD11D112425
:102A000098E2899FC00DD11D1124CE0189960E94A4
:102A10009035612FCE018A960E949035DF91CF913B
:102A20001F910895B0E0A0E0E8E1F5E10C943535A0
:102A30009FE7C92E9EE0D92EF12CE12CB12C870105
:102A4000A12C17C0FE01E00FF11FEE0FFF1FE15296
:102A5000F24F259134914C2F6A2D8B2DBCDF21969E
:102A6000C530D10579F70B5F1F4FA39484E0A816FA
:102A700019F0D0E0C0E0E6CF8601C0E0F801259172
:102A8000349141E06C2F8B2D76DFF8013296259141
:102A9000349140E06C2F8B2D6EDF0C5F1F4FCF5FAA
:102AA000C33061F78CE0C80ED11CB39484E1E80E0A
:102AB000F11C84E0B812C3CFCDB7DEB7EAE00C94C6
:102AC0005135CF93DF9385E290E00E947435D82F83
:102AD00086E290E00E947435C82F87E290E00E9461
:102AE0007435D53259F4C23149F491E0853009F09A
:102AF00090E0892F8170DF91CF91089580E0FACF27
:102B0000A1E0B0E0E6E8F5E10C943D359B012750EB
:102B10003F4F673073408105910530F019828981FC
:102B20002196E2E00C945935C9010E9474358983DD
:102B3000F6CFCF92DF92EF92FF92CF93DF93EC012B
:102B4000C880D980EA80FB80C701B601D9DF9FEF3A
:102B5000C91AD90AE90AF90AC882D982EA82FB822B
:102B6000DF91CF91FF90EF90DF90CF900895FF928B
:102B70000F931F93CF93DF93843070F5633060F52C
:102B800024E0629F800111243CE0839F000D111D11
:102B9000112407531F4F82E090E0442311F090E08E
:102BA00080E0F42E800F911F0E947435C82FD0E072
:102BB000DC2FCC2783E090E0FF2011F081E090E053
:102BC000800F911F0E9474359E01282BC901CDB73B
:102BD000DEB7E5E00C94563590E080E0F8CF0F9337
:102BE0001F93CF93DF93843030F5643020F5453068
:102BF00010F5C42FD0E0CC0FDD1F2AE0629FC00D7E
:102C0000D11D112438E2839FC00DD11D1124CE01A6
:102C100089960E947435082F10E0102F0027CE01EE
:102C20008A960E9474359801282BC901DF91CF91B3
:102C30001F910F91089590E080E0F8CF743038F440
:102C4000653060F4843050F4462F672FC8CF7D3F45
:102C500041F4633018F441E0843050F090E080E0BB
:102C600008957C3FD9F76330C8F78430B8F740E067
:102C70007ECFCF92DF92FF920F931F93CF93DF937C
:102C80006C010091E40280915802082BC3E0D0E06F
:102C900010E0FC2EC8010C2E02C0959587950A9471
:102CA000E2F780FD0CC02197A0F7F12C8F2DDF916A
:102CB000CF911F910F91FF90DF90CF900895B601B3
:102CC0008C2FBCDF84DB019771F3F0CFCF93DF93C0
:102CD000EC01CFDFBE01B2DF7ADBDF91CF91089547
:102CE000FC0124812223B1F080819181EFDF929554
:102CF0009F70963089F050F49250923058F4803F93
:102D000019F030F4883E30F481E008959A50F5CF00
:102D1000843FD1F380E00895883EB0F3813FD1F73E
:102D2000F3CFA6E0B0E0E7E9F6E10C943C3526E00D
:102D3000FC01DE01119601900D922A95E1F7FC014C
:102D4000258189819A81222381F0662371F091DFA8
:102D5000182F682F89819A81C9DC69817A81812F36
:102D60006DDF2696E3E00C9458357CDC182FF5CF08
:102D7000A0E1B0E0EEEBF6E10C942F35CE01019628
:102D80005C0180E1F50111928A95E9F702E310E018
:102D900097E0492E93E0592E612C712C29EF822E59
:102DA000912C0150110921F46096E0E10C944B350F
:102DB0006201F1E14F165104610471042CF080E1CD
:102DC000C82ED12CE12CF12CA601B401C5010E9422
:102DD00081358C0C9D1C0D2C000CEE08FF084C1846
:102DE0005D086E087F08DDCF6FEF85E290E00E94FE
:102DF00090356FEF86E290E00E9490356FEF87E2AA
:102E000090E00E94903560E088E290E00E9490356A
:102E100009DEAEDF65E285E290E00E94903562E176
:102E200086E290E00E94903565E087E290E00C94A5
:102E30009035B0E0A0E0EFE1F7E10C942F35809001
:102E4000980290909902A0909A02B0909B020E94E2
:102E5000AC096B017C01C818D908EA08FB080E947C
:102E6000AC094B015C018092980290929902A09269
:102E70009A02B0929B02A0916F02EFE6F2E08A2FD5
:102E800090E04FEF5FEF60E070E04C195D096E0974
:102E90007F09A91315C080936F02D091E20280913F
:102EA0001401813009F441C0F0F0823009F4E9C323
:102EB000833009F4EFC3CDB7DEB7E0E10C944B35B6
:102EC000218D328D2901712C612C44155505660523
:102ED000770520F481509F5F3296DBCF2C0D3D1D8E
:102EE000328F218FF8CF109220018092B003909200
:102EF000B103A092B203B092B30389E2EFE6F2E02D
:102F0000ACEBB3E001900D928A95E1F78091B403A8
:102F1000982F937086958695911101C080E08093DB
:102F2000E20281E080931401C6CF80911301D8138F
:102F30006CC09091B40393702091120130E081E055
:102F40009217130609F480E081708093220180912A
:102F5000B90390912101981739F08093210140E045
:102F600060E080E00E94330DDF3009F44AC108F0D0
:102F7000DEC3D73009F4D8C008F0BFC3D33009F49A
:102F800092C008F0ACC3D13009F44CC008F43FC083
:102F9000809120010E945C0BF92EC82FE090B603AF
:102FA0000091B7031091B503612F7E2D802F0E94F1
:102FB000180FD62EC72EB82E6091B803610F7E2D44
:102FC000802F0E94180FE62EA72E982E0C2F10E0AF
:102FD0000F551E4FCF15E8F5F801E15AF140D80121
:102FE000D4968C9190912101982359F0292D4A2D46
:102FF0006E2D80FD03C02B2D4C2D6D2DCF010E9419
:10300000350DCF5F0F5F1F4FE5CF81E09DCFC091A2
:103010002201CC2311F140E060E080E00E94330DFA
:10302000C0E01BC0809120010E945C0BF92EC82FCC
:103030006091B5037091B6038091B7030E94180F99
:10304000E62ED72EC82E0C2F10E00F551E4FCF1591
:10305000B0F0C1E0BFE0BF1518F3809120018F5F91
:1030600080932001C1110AC382E0809314018091F2
:103070002201811103C3D111F4C283E053CFF801BF
:10308000E15AF140D801D4969C9180912101982376
:1030900031F02C2D4D2D6E2DCF010E94350DCF5FBF
:1030A0000F5F1F4FD4CF809120010E945C0BD92E5F
:1030B000C82FB090B603A090B7036091B80380E426
:1030C0000E94430AC82E0C2F10E00F551E4FCD153D
:1030D00030F0C1E0BFE0BD1508F0BFCFA1CFF801CF
:1030E000E15AF1407F01D801D4968C919091210151
:1030F0008923B1F0F801EE0FFF1FE15AF1408589F5
:1031000082958F706091B5038C9D600D11247B2D8D
:103110008A2D0E94180F472F282FC7010E94350DB6
:10312000CF5F0F5F1F4FD3CF83E59EE0CBD8E3C2C5
:103130008EEC9CE0DEC2809120010E945C0BB92ED7
:10314000C82F6091B80366958091B0039091B10348
:103150000E94F90EA82E0C2F10E0F801EF55FE4F3B
:103160007F01000F111F0F551E4FA3E09A2ECB15A4
:1031700030F0C1E02FE02B1508F06FCF51CF970151
:10318000215A31406901D701D4968C919091210147
:10319000892361F1F80144894057550B2589205254
:1031A000330B449FC001459F900D900D1124229F29
:1031B000B001239F700D700D1124860F971F823070
:1031C000910510F00E94170B9091B603899DB001F4
:1031D0001124759567956A0D792F8091B7030E9428
:1031E000180F472F282FC6010E94350DCF5FFFEF24
:1031F000EF1AFF0A0E5F1F4FBACF88E99CE014D880
:103200007AC28091200181111AC06091B80320E137
:10321000620F08F46FEF8091B0039091B1030E94A8
:10322000F90E6AE070E00E941935892B41F480E1C3
:103230000E94F00E90E090930F0180930E01809118
:1032400020010E945C0B192FC82F9091220191112F
:103250001EC020910E0130910F018217130609F054
:10326000C0F412171306A9F0A0F060912101822F7B
:103270000E94A20F81E190E090930F0180930E01D4
:1032800008C0609121018C2F0E94A20FCF5FC1174F
:10329000C0F3C1E0103108F4E0CEC2CE809120012D
:1032A00081111AC06091B80320E1620F08F46FEF3A
:1032B0008091B0039091B1030E94F90E65E070E037
:1032C0000E941935892B41F480E10E94F00E90E0B4
:1032D0009093110180931001809120010E945C0B5A
:1032E000192FC82F9091220191111CC0209110011B
:1032F000309111018217130609F058F612171306C0
:1033000041F238F260912101822F2BD881E190E0C7
:103310009093110180931001BCCF609121018C2FFB
:1033200020D8CF5FC117C8F3B4CF8FEA9EE0E1C1C8
:1033300081E49CE0DEC180912001811109C080916F
:103340002201882329F080E10E94F00E8093A002E0
:10335000809120010E945C0BF92E00919C0210913B
:103360009D0220919E0230919F024091B0035091A6
:10337000B1036091B2037091B303041715072607D8
:10338000370708F04BC00091A002081708F1091791
:10339000F8F410E0F801EF55FE4F84A99091210157
:1033A0008923B1F00E94DB0E81FD3EC00E94DB0E3E
:1033B000C82F80E80E94F00E7FE7780F8091B70356
:1033C0006C2F0E94180F472F282FC8010E94350D1F
:1033D0003FE03F1518F580E10E94F00E8093A002B7
:1033E0006091B80380E097E00E94F90E20E038E099
:1033F000281B390B8091B0039091B103A091B203C7
:10340000B091B303820F931FA11DB11D80939C0245
:1034100090939D02A0939E02B0939F02C1E08FE023
:103420008F1508F01ACEFCCD80E070E0C0E0C8CF68
:103430004091D1025091D2026091D3027091D40296
:103440008091B0039091B103A091B203B091B30306
:1034500084179507A607B70708F4E2CD80912201EB
:103460008823C1F040E060E080E00E94330D01EA73
:1034700012E0C0E10E94DB0E81FF2EC0D8011C9239
:1034800011961C92119712961C92C1500D5F1F4FFE
:10349000C111F0CF809120010E945C0BD92EC82F62
:1034A00090E09C012F553E4F790133E0C39F80018E
:1034B00011240F551D4FCD1508F1C1E0EFE0ED15BA
:1034C00008F4C0E0FFE0FD1508F0C7CD20E08D2D29
:1034D0008150990B7C0145C00E94DB0EF82E80E8DC
:1034E0000E94F00E7FE7780F6F2D8091B7030E9446
:1034F000180FF801608371838283C7CFF701E15A07
:10350000F140D701D4969C9180912101982359F0E4
:10351000D80112962C91129711964C9111976C919B
:10352000CF010E94350DCF5FBFEFEB1AFB0A0D5F95
:103530001F4FC1CFAC01440F551F480F591F4F55A6
:103540005D4F0196FC01EE0FFF1FE80FF91FEF55CD
:10355000FD4F80819181A281FA0180839183A283B2
:103560002F5F822F90E08E159F0524F30E94DB0EC3
:103570008701000F111F81FF21C0F801EE0DFF1D13
:10358000EF55FD4F1082118212820E94060F0091AA
:10359000B0031091B1032091B2033091B303DC0169
:1035A000CB01800F911FA21FB31F8093D102909374
:1035B000D202A093D302B093D4024FCD0E94DB0E6F
:1035C000D82E80E80E94F00E7FE7780F6D2D809155
:1035D000B7030E94180FF801EE0DFF1DEF55FD4FC8
:1035E000608371838283D1CF8EE29CE00E945D1064
:1035F00082C08DEF9BE00E94C80F7DC082E99BE0F6
:10360000FACF8AE79BE0F7CF84E69BE0F4CF809186
:10361000B0039091B103A091B203B091B3032AE03B
:10362000B695A795979587952A95D1F78370992791
:10363000AA27BB2782309105A105B105C1F08330CF
:103640009105A105B105B1F040E060E00197A10549
:10365000B10591F464E180E00E94330D82E0809333
:1036600014018091200181500E945C0B24CC44E124
:1036700060E0F1CF44E164E184E1EECFD111F1CF1C
:103680001ACCD09313018091B403837080931201FC
:103690004DD9F3CC8091E102882351F048E050E00D
:1036A00067E170E084EB93E00E9481351092E102C3
:1036B000C090B003D090B103E090B203F090B30398
:1036C0000E94AC096C197D098E099F096031710552
:1036D0008105910508F4EFCB10921401ECCB81E049
:1036E0009DE0D53031F086EC9EE0D63010F080EDD4
:1036F0009CE00E94C810C82FB0CCDB3009F41BCD71
:1037000058F4D93009F414CD88E39EE0DA3008F497
:103710000DCD85EC9CE0EDCFDD3009F46ECD88E277
:103720009EE0DE3008F402CD8BE59CE068CDD73119
:1037300009F45ACF08F0D6C0D33109F4F9CD40F4DA
:10374000D13109F4F2CD08F4A9CD8EE89EE0D1CFB5
:10375000D53109F46DCE08F4EECD80912201882395
:1037600029F040E060E080E00E94330D809120016C
:103770000E945C0BD92E4091B0035091B10360912F
:10378000B2037091B3038091DD029091DE02A091AB
:10379000DF02B091E00284179507A607B70708F08B
:1037A0009BC06091B5037091B6038091B7030E94EE
:1037B000180FC62FC72EB82E35EDE32E32E0F32EAC
:1037C00001EA11E0D7018C918B2C9C2CAC2E81113D
:1037D00003C0812C912CA12CD801EC91F0E0DF01E9
:1037E000AF55BE4FD4969C9180912101982331F022
:1037F000282D492D6A2DCF010E94350DD801149630
:10380000EC91F0E0DF01AF55BE4FD4969C918091D2
:103810002101982331F0282D492D6A2DCF010E94D6
:10382000350DF701818180838B2C9C2CAC2E81116E
:1038300003C0812C912CA12CD8011196EC91F0E0C1
:10384000DF01AF55BE4FD4969C9180912101982302
:1038500031F0282D492D6A2DCF010E94350DD80158
:103860001396EC91F0E0DF01AF55BE4FD4969C91DA
:1038700080912101982331F0282D492D6A2DCF0107
:103880000E94350D0E94DB0E837091E009F090E0FC
:10389000F7019183F2E0EF0EF11C0B5F1F4F21E067
:1038A000053B120709F08ECF0E94060F0091B0036E
:1038B0001091B1032091B2033091B303DC01CB012D
:1038C000800F911FA21FB31F8093DD029093DE0231
:1038D000A093DF02B093E002C1E03FE03D1508F0A5
:1038E000BCCB9ECBDB3109F489CE58F4D93109F435
:1038F00080CE86E19CE0DA3108F478CE84EC9BE05F
:103900007ACEDD3109F480CE08F47BCEDF3F09F4B6
:103910007ECE809120018F5F80932001A5CBE4EBC8
:10392000F3E089E280838091230190912401A091AA
:10393000250181839283A3838FE784838FEF85831F
:1039400048E050E067E170E0CF010E9481351092BD
:10395000E1020895AB0124E630E0BC0188E70E9453
:10396000943421E0892B09F020E0822F0895809182
:103970000E0390910F03911103C091E089270895E0
:10398000882361F062E070E08CE993E0E3DF81116D
:1039900003C080910E03089510920E0380910E03D0
:1039A000ECCFCF93C0910E0380910F038823C9F011
:1039B0000E94AC09605A75418F4F9F4F60930A0374
:1039C00070930B0380930C0390930D03C11107C0F8
:1039D00062E070E08AE993E0BDDF811105C0C0912B
:1039E0000E038C2FCF91089581E080930E03F7CFC3
:1039F00090915A0392FB222720F9281779F080FB37
:103A000092F990935A036091590370915A0384E09C
:103A100090E00E94AA3582E00C94ED130895809105
:103A20001E01813069F58091590387FF29C00E94EA
:103A3000DC128093F10140E250E067E272E080EF37
:103A400091E00E940C36892BD1F080E2E0EFF1E0AA
:103A5000A7E2B2E001900D928A95E1F7E091E503CB
:103A6000F091E603309759F00480F581E02D30970E
:103A700031F086E08093F00180EF91E009950895A0
:103A80000E94DC128093E80148E050E067E472E0B5
:103A900088EE91E00E940C36892B89F388E0E8EEED
:103AA000F1E0A7E4B2E001900D928A95E1F7E09190
:103AB000E503F091E603309711F30280F381E02DE6
:103AC0003097E9F288EE91E0D9CF882319F00E946F
:103AD000D412A5CF0895882331F090916103892BEA
:103AE000809361039CCF08951F920F920FB60F929F
:103AF00011242F933F934F935F936F937F938F93F3
:103B00009F93AF93BF93EF93FF938091E10082FF68
:103B100009C08091E20082FF05C08091E1008B7FA7
:103B20008093E1008091DA0080FF24C08091D8006A
:103B300080FF20C08091DA008E7F8093DA00809130
:103B4000D90080FFA9C080E189BD82E189BD09B4A7
:103B500000FEFDCF81E080936C03809160038111B2
:103B600009C00E9454080E94F3088091E20084601A
:103B70008093E2008091E10080FF1AC08091E20012
:103B800080FF16C08091E2008E7F8093E2008091DA
:103B9000E20080618093E2008091D800806280938F
:103BA000D80019BC85E080936C0383E080931F01EB
:103BB0008091E10084FF2FC08091E20084FF2BC040
:103BC00080E189BD82E189BD09B400FEFDCF80910D
:103BD000D8008F7D8093D8008091E1008F7E809304
:103BE000E1008091E2008F7E8093E2008091E2000C
:103BF00081608093E20080916D03882309F452C0B4
:103C000084E080936C0380916C03843009F452C08B
:103C100081E080931F018091E10083FF2CC080919F
:103C2000E20083FF28C08091E100877F8093E1005C
:103C300082E080936C0310926D038091E1008E7F8F
:103C40008093E1008091E2008E7F8093E20080917A
:103C5000E20080618093E20042E060E080E00E9448
:103C6000C1088091F00088608093F00081E080932B
:103C70001F0180931E01FF91EF91BF91AF919F9122
:103C80008F917F916F915F914F913F912F910F9005
:103C90000FBE0F901F90189519BC10926C031092D4
:103CA000600368CF8091E30087FD02C081E0A9CF67
:103CB00083E0A7CF82E0ADCF78941F920F920FB62A
:103CC0000F9211248F939F93AF93BF9380915C03C6
:103CD00090915D03A0915E03B0915F030196A11DD9
:103CE000B11D80935C0390935D03A0935E03B0933A
:103CF0005F03BF91AF919F918F910F900FBE0F9077
:103D00001F9018952FB7F89480915C0390915D03F4
:103D1000A0915E03B0915F032FBF0895F3DF209160
:103D20005103211104C020915203222321F09093CA
:103D30004E0380934D0320915303211104C0209121
:103D40005403222321F090934C0380934B03E09182
:103D5000E503F091E603309759F00680F781E02DF6
:103D6000309731F082E080934F038FE493E0099520
:103D7000089580911E01813021F58091590387FFBC
:103D800020C0E2EFF1E08EE1DF011D928A95E9F7B4
:103D900090E080E00E940D0A90E080E00E94E60939
:103DA000109226023CDE86E0EFE4F3E0DF011D9294
:103DB0008A95E9F7109248031092490310924A033A
:103DC000ADCFEAEEF1E086E0DFCFAAE2B0E0EBEEC5
:103DD000FEE10C943C35EEE6F3E08091F100819336
:103DE00083E0E637F807C9F780916F03833009F461
:103DF0007FC008F5813009F456C0823009F4C5C08F
:103E00008091E80083FFFFC080916E0390916F0363
:103E10009A3008F0F8C0E92FF0E0EF5EF04E0C9415
:103E2000DD35D61FFC1F0320FC1F03205420762005
:103E30000320752182218A3009F496C08B3009F461
:103E400074C08930E9F680916E038132C9F68091A1
:103E5000720390917303009711F0029789F6809195
:103E6000E800877F8093E8008091E80082FF3BC0F4
:103E70008091F3009091F200892798278927029773
:103E800031F48091F100813011F0863021F480917D
:103E9000F10080931D018091E8008B778093E8000A
:103EA0000E94A208ADCF80916E03813A09F0A8CF9D
:103EB0008091E800877F8093E80080917203909161
:103EC0007303892B61F060E090E080E070E00E9475
:103ED0004D098091E8008B778093E80091CF68E0EE
:103EE00082E693E0F3CF80916C038111BDCF88CF40
:103EF00080916E03813A09F083CF80917203909193
:103F00007303892B09F07CCF8091E800877F809331
:103F1000E8008091E80080FFFCCF80911E01809333
:103F2000F1008091E8008E77B9CF80916E038132E5
:103F300009F066CF8091720390917303892B09F089
:103F40005FCF8091E800877F8093E8000E94A208FD
:103F500081E090917003911101C080E080931E0177
:103F60001092610306DF4CCF80916E03813209F01D
:103F700047CF8091E800877F8093E8000E94A208E5
:103F80008091710380931C013BCF80916E03813A35
:103F900009F036CF8091E800877F8093E800809118
:103FA000E80080FFFCCF80911C01B9CF803889F0F8
:103FB000823849F5809172038F70873020F58093A5
:103FC000E9008091EB0085FB882780F91092E900D9
:103FD00006C080916A0390916B0391118260909169
:103FE000E800977F9093E8008093F1001092F10031
:103FF0008091E8008E7727C0282F2D7F21F4882319
:10400000A1F0823029F18091E80083FF0AC08091FD
:10401000E800877F8093E8008091EB0080628093C6
:10402000EB00AA96E3E00C94583580917003813040
:1040300051F7933009F080E080936B031092E90010
:104040008091E800877F8093E8000E94A208DBCF80
:10405000809170038111F2CF809172038F702FEFE6
:10406000280F263080F68093E9002091EB0020FF96
:10407000E5CF933031F48091EB0080628093EB00C8
:10408000DDCF9091EB0090619093EB0021E030E068
:1040900001C0220F8A95EAF72093EA001092EA0005
:1040A0008091EB008860EACF8111ADCF1091700351
:1040B0001F778091E3008078812B8093E3008091CB
:1040C000E800877F8093E8000E94A2088091E800C2
:1040D00080FFFCCF8091E30080688093E30083E061
:1040E000111101C082E080936C038DCF8058823023
:1040F00008F089CF20917003309171032C3DA3E02B
:104100003A07A1F583E08A838AE289834FB7F8945E
:10411000DE01139620E03EE051E2E32FF0E0509301
:104120005700E49120FF03C0E295EF703F5FEF700E
:104130008E2F90E0EA30C0F0C7968D939D932F5F4D
:10414000243159F74FBF8091E800877F8093E800C2
:104150006AE270E0CE0101960E944D098091E8006C
:104160008B778093E8004FCFC096E7CF80917203A2
:1041700090917303432F55274330510509F44FC0E5
:1041800078F54130510509F445C08BE590E0EFEA40
:10419000FEE04230510509F036CF2091E800277F3C
:1041A0002093E800209174033091750382179307E0
:1041B00008F49C0140E02115310509F063C041116C
:1041C00061C08091E80082FDC9CF80916C03882393
:1041D00029F2853019F28091E80083FFF2CFBECF3B
:1041E0004132510509F43FC04232510509F00BCF6D
:1041F0008330910508F007CFFC01EE0FFF1FEB564F
:10420000FE4F0190F081E02D8E569E4FDC018C9187
:1042100090E01DC082E190E0EAE0FFE0BECF3327EE
:1042200021303105C1F060F02230310509F0EBCECC
:10423000ECE1FFE0E4918E2F90E0ECE1FFE007C0BD
:10424000EAE3FFE0E4918E2F90E0EAE3FFE00097DD
:1042500009F4D9CEA2CFEEE2FFE0E4918E2F90E0F8
:10426000EEE2FFE0F4CF8330910508F0CCCE880F6A
:10427000991FFC01E556FE4F0190F081E02D89E089
:1042800090E08BCF80916C03882309F467CF853051
:1042900009F464CF8091E80083FD60CF8091E8004D
:1042A00082FD8FCF8091E80080FF85CF8091F30061
:1042B0009091F2008927982789272115310519F057
:1042C0008830910550F041E0089709F040E0809176
:1042D000E8008E778093E8006ECF44914093F10020
:1042E0003196215031090196E8CF803809F08BCE04
:1042F0008091E800877F8093E80080916D03809330
:10430000F10076CE81117FCE10917003123008F04B
:104310007ACE8091E800877F8093E80010936D0348
:104320000E94A2081123F9F084E080936C0342E01C
:1043300061EC81E00E94C10842E261EC84E00E94ED
:10434000C10842E261EC82E00E94C10842E260ECF6
:1043500083E00E94C10880916C03843051F482E0B4
:1043600080931F0150CE8091E30087FDDDCF81E077
:10437000DCCF81E0F5CF1F920F920FB60F92112480
:104380002F933F934F935F936F937F938F939F935D
:10439000AF93BF93CF93EF93FF93C091E900CF709A
:1043A0008091EC001092E9008091F000877F80936B
:1043B000F00078940ADD1092E9008091F0008860A6
:1043C0008093F000C093E900FF91EF91CF91BF91EE
:1043D000AF919F918F917F916F915F914F913F919D
:1043E0002F910F900FBE0F901F90189510926103A0
:1043F000C0DC2FEF84E39CE0215080409040E1F747
:1044000000C0000088E19CE00FB6F894A895809366
:1044100060000FBE90936000FFCF662309F45BC07D
:104420008D3C31F40E946D0A81958093520376CCC5
:104430008E3C19F40E946D0AF8CF8F3C31F40E9433
:104440006D0A819580935103F2CF803D19F40E944B
:104450006D0AF8CF893D29F40E944B0A80935303DB
:10446000E6CF8A3D21F40E944B0A8195F7CF8B3D20
:1044700031F40E944B0A819580935403D8CF8C3D30
:1044800019F40E944B0AF8CF9FE2980F983070F40D
:10449000815D990B21E030E001C0220F8A95EAF797
:1044A00080915003822B80935003C1CF8D3D31F416
:1044B00080914A03816080934A03B9CF8E3D21F4F5
:1044C00080914A038260F7CF8F3D09F0B0CF809191
:1044D0004A038460F0CF8D3CD9F49091520397FF4A
:1044E0001DC01092520380915103811106C080912A
:1044F0005203811102C0109248038091530381112D
:1045000096CF80915403811192CF109249038FCF9F
:104510008E3CD9F49091520319161CF39FE2980F28
:10452000983008F03FC0815D990B21E030E0A9018F
:1045300002C0440F551F8A95E2F7CA0180959091F9
:104540005003892380935003CECF909151038F3C29
:1045500029F497FFE3CF10925103C5CF803D19F4A2
:104560001916CCF3DBCF90915303893D29F419162A
:10457000ACF610925303B7CF8A3D19F497FFCECF14
:10458000F8CF8B3D39F49091540397FFC7CF109229
:104590005403A9CF8C3D09F0C1CF90915403191653
:1045A000B4F3BCCF8D3D31F480914A038E7F80936C
:1045B0004A0399CF8E3D21F480914A038D7FF7CF36
:1045C0008F3D09F090CF80914A038B7FF0CF8823F5
:1045D00059F19CEF980F913A18F40E94BB091FCA39
:1045E00090E2980F983050F4877091E001C0990FD5
:1045F0008A95EAF7892F0E94D412F1CF9BE5980F94
:10460000933020F490E080E00C940D0A98E5980F28
:104610009B3120F490E080E00C94E60993E3980F3E
:10462000933110F460E0F9CE0895CF93882309F414
:104630004DC0C82F8CEF8C0F813A08F061C080917B
:104640001E018130F9F48091590387FF1BC0EC2FC4
:10465000E695E695E695F0E0E051FE4F828190E028
:104660004C2F477021E030E002C0220F331F4A95E3
:10467000E2F782239323892B79F08C2F0E94BB09C8
:10468000CED90AC0EAEEF1E080EF91E02191C217A5
:10469000A1F38E179F07D1F780911E018130C1F4DD
:1046A0008091590387FF14C0EC2FE695E695E695B7
:1046B000F0E0E051FE4FC77021E030E001C0220F72
:1046C000CA95EAF78281822B8283A9D9CF91089576
:1046D000AAEEB1E0EFEF80E09D91C917B1F3EF3F93
:1046E00019F4911101C0E82F8F5F8630A9F7EF3FD1
:1046F00061F30E2E000CFF0BE851FE4FC283E5CF95
:1047000080E28C0F883068F4C77021E030E001C08F
:10471000220FCA95EAF780916103822B809361038F
:10472000D4CFEBE5EC0FE33040F4F0E0E85DFE4F72
:10473000808190E00E940D0AC9CFE8E5EC0FEB31D3
:1047400050F4F0E0EE0FFF1FE55DFE4F8081918198
:104750000E94E609BBCF83E38C0F833108F0B6CF0C
:1047600061E08C2F5ADEB2CF1F93CF93DF93182FC7
:10477000EB015BDF209731F4812F29DFDF91CF91AF
:104780001F9108958FE99FE00197F1F700C00000A5
:104790002197F0CFA4E0B0E0E0EDF3E20C943335E4
:1047A000FC012481222309F489C06C0161E00E948C
:1047B0009116F6013581332309F428C1AC0157570E
:1047C0004038510508F0E7C0182F803108F067C065
:1047D00066E073E080E090E00E94801581115FC088
:1047E000812C912C5401111122C089829A82AB82B2
:1047F000BC824AE0842ECE0101960E94991588233E
:1048000009F44DC0813009F073C0CE0101960E94B9
:104810009915813001F5CE0101960E94991560E548
:1048200070E0893311F070E060E09EDFE4CFF7E0E4
:104830008F16F3E09F06A104B10489F1C501B4010C
:104840000E948015811101C011502FEF821A920A27
:10485000A20AB20AC8CF823031F4CE0101960E947A
:104860009915E3DEC8CF833031F4CE0101960E9462
:104870009915ADDEC0CF843081F4CE0101960E943F
:10488000991510E000E0482F4053550B9A014A302B
:104890005105C0F00115110511F58111ACCF8091C2
:1048A0002402877059F0F6018581882339F08091C0
:1048B0005A0382FF03C082E00E94ED132496ECE0CD
:1048C0000C944F35809EC001819E900D112489016A
:1048D000080F191FCE0101960E949915D4CFEFE958
:1048E000FFE03197F1F700C0000001501109D2CF6D
:1048F000E82FF0E0E850FE4F9490282F269526955B
:10490000269530E0F901E851FE4FE4908770F12CD4
:10491000082E02C0F594E7940A94E2F7F1E0EF2242
:10492000FF24F901E852FE4FA490B12C082E02C0DA
:10493000B594A7940A94E2F741E0A422BB24F901BC
:10494000E853FE4F049110E002C0159507958A9533
:10495000E2F701701127E114F10411F081EE65DE38
:10496000A114B10411F086EE60DE70E060E0892DE4
:10497000FBDEA114B10411F086EE29DEE114F1048E
:1049800011F081EE24DE0115110509F434CF70E039
:1049900060E08CE24ACF209161032272FC01E05278
:1049A000F847EB30F10508F035C3E752FB4D0C94A6
:1049B000DD35E424E8242C25EE243225F4243825A2
:1049C000FA243E250025442581E00E94EC0D67CFA6
:1049D000222309F444C00E94D90D61CF222309F497
:1049E00044C00E94B10D5BCF222309F444C00E9451
:1049F000990D55CF222309F444C00E94810D4FCF59
:104A0000222309F444C00E945D0D49CF2091610327
:104A10002272FC01E054F847EF30F10508F044C081
:104A2000EC5EFA4D0C94DD3523252925E424E82499
:104A30002C25EE243225F4243825FA243E250025A1
:104A400044254A254F250E944F0B81E00E94370DD7
:104A500026CF0E94430BF9CF222309F4BCCF0E943A
:104A6000E20D1DCF222309F4BCCF0E94BA0D17CF4F
:104A7000222309F4BCCF0E94A50D11CF222309F4F3
:104A8000BCCF0E948D0D0BCF222309F4BCCF0E9416
:104A9000670D05CF222329F00E943D0D00CF222370
:104AA000D9F30E944D0DFBCE87375CE7950731F1B6
:104AB0008837ECE79E0731F1AC01405E5245403249
:104AC000510510F531112EC08F7101E010E002C0C8
:104AD000000F111F8A95E2F7602F83E090E00E949B
:104AE0009035802F0E948F13DACE81E00E9403144C
:104AF00043E062E081E00E94C413D1CE81E00E94D5
:104B0000E213F6CF82E0FBCF3323D1F18B354CE7B4
:104B1000940769F18C355CE79507E9F08A35ECE795
:104B20009E0719F18130FCE79F0749F183302CE79C
:104B30009207F9F081159C4719F51092610319D974
:104B40005FEF84E39CE0515080409040E1F700C06B
:104B500000000E94721480915A0382FB882780F91A
:104B600091E089270E94F81C9ACE81E0FBCF80E07B
:104B7000F9CF6FEF7FEF90E080E00E94AA3536DC3E
:104B8000F60100811181C801332309F455C00E9448
:104B90003916F82E682FC8010E947613B8018F2DA0
:104BA0000E941E160E94E7118C01982EF601B58016
:104BB000A680A2943FE0A32280912402877009F18D
:104BC000EB2CBB20F9F0812F807F803469F080E2EC
:104BD000800F8830B0F0812F807E803229F4F1E0A0
:104BE000F01778F4AA2069F080915A0382FF09C077
:104BF00082E00E94ED13809124028770EE24E394FA
:104C00008111E12CF12EF2942FE0F2222BE02F15EE
:104C100008F4E5C0EF2DF0E0E05FF94D0C94DD35D0
:104C20002026202657265726E8260727EF26EF2698
:104C30000B2779278A278A270E943213F82EAECFB6
:104C4000412F4F70F42E107F19F0F29490EFF9225B
:104C5000802FBB20B9F0FF2069F090E2900F9830D0
:104C600010F0011109C080916103F82AF0926103EC
:104C70000E940F1D802F40C080912602F82AF092DA
:104C80002602F6CFA4DCFF20C1F1005E083010F050
:104C9000911004C08F2D0E94D41206C0F094809110
:104CA0002602F822F09226020E940F1D26C0512FE4
:104CB0005F70F52E107F103219F0F29480EFF82219
:104CC000992051F091E0991609F463C0BB2009F4D2
:104CD0006FC0AA2099F1CECF80915A0382FD2AC0DD
:104CE000BB2019F1FF2039F080916103F82AF0927E
:104CF00061030E940F1D80E098DCEE2009F4B7C02C
:104D00008091240280FDB3C0F601158286958695B8
:104D100086950E940314C6013DDD8091240286958C
:104D2000869586950E94E213A2C080E050DCFF20A9
:104D300021F3B0CFBB2099F0A11004C08F2D0E94A9
:104D40006B1DDBCFE1E0AE12D8CF809125029F2D05
:104D50009823F91691F2F82AF0922502CECFA110ED
:104D6000CCCF8F2D0E94651D909125028F2D892318
:104D700029F08F2D80958923809325028091100240
:104D80009F2D982309F4B9CFF094F822F0921002E5
:104D9000B4CFBB2029F0F5E0FA1508F4AECFCECFA2
:104DA00024E02A1508F4A9CF8F2D0E94651DA5CFF8
:104DB000AA20D1F3093349F44FEF57EE83E0415075
:104DC00050408040E1F700C00000802F00DC95CF0C
:104DD000812F86958695837041F0813079F088EF38
:104DE0008F0D843008F089CF40C0C8019370B11096
:104DF00002C080E090E00E940D0A7FCFC80193704E
:104E0000B11002C080E090E00E94E60976CF6B2DE1
:104E1000802F03DB72CF812F8370B1F5B11025C0D5
:104E2000402F429546954770440F440F802F8F7056
:104E3000042E01C0880F0A94EAF720E004FF07C09F
:104E40002FE030E001C0220F4A95EAF72095169531
:104E500016951370123099F080F430915802113089
:104E600059F0822B83230E948F130E94340A60E042
:104E7000C6010E94911622CD832B822BF4CF282BC2
:104E8000809158028227EFCF8695BB2011F0812FA9
:104E90008170882351F3402F429546954770440F07
:104EA000440F802F8F70042E01C0880F0A94EAF7F8
:104EB00020E004FF07C02FE030E001C0220F4A9538
:104EC000EAF72095169516951370123069F050F494
:104ED0003091E402113029F0822B83230E94C01309
:104EE000C4CF832B822BFACF282B8091E402822718
:104EF000F5CF1F70BB2039F0812F0E940314802F43
:104F00000E946B1DB2CF802F0E94651D812F0E94D1
:104F1000E213ABCF802F92EF9916D9F1991578F063
:104F2000E0EF9E16E9F0F1EF9F1699F0BB2009F42F
:104F30005EC0AA2009F458C0802F77DB50CF23EF42
:104F4000921671F144EF9412F1CF90915A0392FDB1
:104F500032C0812F8F71BB2001F10E9403143FCF1B
:104F6000BB2091F054E05A1508F439CF1F7181E04D
:104F700090E0012E01C0880F0A94EAF79091E402B4
:104F800089270E94C0132BCF85E08A1508F427CF0C
:104F9000EDCF812F8F71BB2001F30E94E2131FCF51
:104FA00080E0BB2071F31F7181E0012E01C0880FEA
:104FB0000A94EAF7E6CFBB2061F0812F8F7192FF50
:104FC000CCCF98E0899F9001112423602093240284
:104FD000C4CF81E00E94ED13E1E0EA1508F0FFCEB6
:104FE00082E00E94ED13FBCE812F8F71B6CFAA20F5
:104FF00071F0893349F4FFEF27EE43E0F150204090
:105000004040E1F700C00000802FE1DAE8CE812FB8
:105010008F71C3CF8737FCE79F0709F466CD8837C8
:105020002CE7920709F048CD82E060CDCF93DF9363
:1050300080912302807F09F04CC080912202882356
:1050400009F447C0E091AF0350917603C0911E026E
:10505000D0911D0260911F027091200247E05E17FF
:10506000C1F18E2F90E0E49FF0011124E958FC4F2C
:105070002481222389F1489FF001499FF00D1124DA
:10508000DF01A958BC4F11962C9111972C1324C005
:105090002C912D1321C015962C91159721111CC010
:1050A00012962D913C91261B370B283C3105A0F41C
:1050B000809123028F70806180932302E358FC4F1C
:1050C00080818F70806180838DE192E063DB0E943C
:1050D0000113DF91CF910895FC013196E770BFCFA6
:1050E000A4E1B0E0E6E7F8E20C9433358C0186E009
:1050F000F801DE011F9601900D928A95E1F7F80103
:105100008481E5809DE1A92E92E0B92E9091210243
:10511000911126C0882309F1EE20E9F0C8010E9410
:105120007016F82E8823B9F087E0F801D5010190B8
:105130000D928A95E1F780912102813031F48091BE
:105140001D0290911E020E94661670DF8F2D6496DC
:10515000ECE00C944F35C8011DDBFF24F394F6CF2F
:10516000D080C18082809380F090220220911F0223
:1051700030912002A401421B530BFF2009F4D2C03E
:10518000483C510508F08DC0882301F390911E0220
:1051900080912302282F207F09F053C0C91213C029
:1051A00090911D02D9120FC0E11045C08F7080612F
:1051B000809323028DE192E0EDDA80912302F801E1
:1051C0008683F12CC3CFE11036C06C2D8D2D0E944B
:1051D00035086C2D8D2D0E943508E82E8111F1CFF8
:1051E000DF86C88A8F8598890E946616292F2295A6
:1051F0002F70243058F49F70223078F0992389F072
:10520000F8019681907F69F4FE2CA0CF2A502230BD
:1052100060F0C801BFDAEF2CF7CF992311F0882393
:1052200099F3805E8830A8F7EFCF803F68F3815F05
:10523000833078F7E9CF8091230281608093230245
:10524000C0CFC91207C090911D02D91203C0EE2031
:1052500009F489C0C8010E947016882309F47BCF25
:10526000EE2009F478CF80912302803280F02091E3
:105270001D0230911E02398728879B868A8690916D
:1052800021029C871D868E87CE01089683DA87E0EF
:10529000F801ADE1B2E001900D928A95E1F7C6DE2A
:1052A0005CCF90912302292F207F49F48DE192E079
:1052B00071DA87E0F50111928A95E9F782CF8823A8
:1052C00009F444CF80911E028C110FC080911D0201
:1052D000D8120BC0E11009C09683C8015BDA87E0E1
:1052E000F50111928A95E9F731CFC8010E94701635
:1052F000882309F430CFEE2009F42DCF80912302CA
:10530000803228F220911D0230911E023A832983B7
:105310009C828B82909121029D831E828F83CE017D
:105320000196B4CF483C5105D0F6882309F415CF37
:10533000FE2CEE2009F40FCF80911E028C111FC0AD
:1053400080911D02D8121BC08091230280FD0EC0E7
:10535000982F907F59F08683903F31F0982F907F5F
:10536000905F8F70892B8683C80114DA87E0F8017B
:10537000ADE1B2E001900D928A95E1F7E7CEC80168
:105380000E947016811183CF8091230281608093E7
:105390002302C801FFD9DACEABE1B0E0E2EDF9E2D9
:1053A0000C943C354E8B5F8B688F798F8A8F9B8FE7
:1053B0009111109226021D8A86E0FE017696DE018A
:1053C0001F9601900D928A95E1F78B89882351F001
:1053D00061E0CE010F960E94911661E0CE010F961A
:1053E0000E94911687E0FE013F96DE01189601901B
:1053F0000D928A95E1F7CE01089672DE81112AC0DE
:1054000087E0FE013896DE01119601900D928A9593
:10541000E1F78C858823F1F02091760330E0C90113
:105420000196877099274091AF034817190651F1EB
:1054300097E0929FD001939FB00D1124A958BC4FC3
:10544000FE01319601900D929A95E1F780937603D3
:105450000E94011317E08091AF03909176038917A2
:1054600001F1819FC001112489589C4F39DE8823A6
:10547000C1F08091AF0390E00196877099278093E7
:10548000AF03E9CF109261030E94B91E1092760318
:105490001092AF0387E0EDE1F2E0DF011D928A9503
:1054A000E9F76B96E3E00C945835B0E0A0E0EBE54B
:1054B000FAE20C94313580910F03882309F405C179
:1054C00089EE93E09093EA058093E905C091E602A6
:1054D000D091E7020E94821E8C1B9D0B883893415D
:1054E000A8F58091E502811131C08EE993E00E9418
:1054F000D8078091E7039091E803892B09F4CCC089
:1055000080910F03882309F4C7C08091090381119A
:10551000C3C00E94D11C2091E7033091E8032115FC
:10552000310509F4B9C080E041E050E0082F10E0F7
:105530003A01082E02C0660C771C0A94E2F7B30108
:1055400062237323672BA1F48F5FF0CF81E08093F8
:10555000E5028091E4020E9492132DE032E0482F90
:10556000429FC001439F900D112485559A4FBFCF94
:105570009091080390FFAEC0880F880F880F80932A
:10558000170110921A01895F8093180183E08093BC
:105590001B0124E630E047E050E065E171E088E778
:1055A0000E945634892B09F077C0A80185E0440F8A
:1055B000551F8A95E1F78091080380FF9DC0E8EEB2
:1055C000F2E080E2DF011D928A95E9F7A8E8B1E0F8
:1055D00004E811E0882483942D91E80169918E01FB
:1055E000640F752F711D67517C4F30E028513D4F7E
:1055F000F90197E07F01E21AF30A982C01C0990C97
:10560000EA94EAF77B01B12CE70189917E018921B7
:10561000A92EAB18DA2DD770CD2E0D2E000CDD087B
:10562000C82F01C0CC0FDA95EAF7AC2ED194C19403
:10563000D108D7E0CD22DD240C2C01C086950A9438
:10564000EAF7DC2ED82A80818D298083B39488E004
:10565000B812DACF915031969F3F61F6C1E0AC3875
:10566000BC0709F0B9CF04E610E020E230E048EED4
:1056700052E060E488E70E94D534892B69F4E301A5
:10568000C095D0958091E7039091E803C823D92372
:10569000D093E803C093E70380910E038823A9F019
:1056A0000E94AC0900910A0310910B0320910C0396
:1056B00030910D03601B710B820B930B6F3F7F4F7B
:1056C0008F4F9F4710F40E94B71CCDB7DEB7EEE0B6
:1056D0000C944D358295880F807680931701980140
:1056E000369527953695279520931A01815E8093EC
:1056F000180120931B014DCF47515C4F04E610E089
:1057000020E230E0B6CFA4E0B0E0E9E8FBE20C94A0
:10571000303519821A821B821C8281E6E82E81E0D4
:10572000F82E8E010F5F1F4F95E6C92E91E0D92EFE
:105730003801AA24A394B12C3AE6832E31E0932EAB
:10574000F70181917F018F3F09F440C0F894E82F61
:10575000E295EF70F0E021A18F70A50102C0440F27
:10576000551F8A95E2F7CA01922F982B91A392A117
:105770008095892382A3789400C0E5E6F1E0512C5E
:1057800031E021912F3F09F44BC0A22FA295AF70B9
:10579000B0E090968C9190E02F7002C0959587951F
:1057A0002A95E2F780FD3CC0832F582A330F8E16CE
:1057B0009F0639F7F701319780818F3F11F00E94E2
:1057C000D01150EA5A95F1F7F80150820F5F1F4F40
:1057D000CE14DF0409F0B4CF44E050E0B30184E517
:1057E00092E00E940C36892BF9F089819A81AB8175
:1057F000BC818093540290935502A0935602B093BB
:10580000570281E0809353020E94821E90935202BD
:105810008093510210E0812F2496EFE00C944C35D8
:1058200080E0C3CF10E028C010915302112391F300
:10583000E0905102F09052020E94821E8E199F0940
:10584000059740F344E050E064E572E089E592E0BA
:105850000E940C36892B31F38091540290915502AD
:10586000A0915602B09157028093590290935A0228
:10587000A0935B02B0935C0210925302CCCFA6E0DF
:10588000B0E0E5E4FCE20C943B350E94821E8C0102
:1058900080914F02909150028017910779F0198200
:1058A0001A820E94821E682F49815A81792F80E0D6
:1058B00090E072DD1093500200934F022696E4E0D0
:1058C0000C9457351F920F920FB60F9211248F939D
:1058D0009F93AF93BF9380915B03811113C080911D
:1058E0005C0390915D03A0915E03B0915F034196CC
:1058F000A11DB11D80935C0390935D03A0935E0393
:10590000B0935F03BF91AF919F918F910F900FBEA6
:105910000F901F901895CF93DF93EC010E94821E89
:105920008C1B9D0BDF91CF910895AEE3B0E0EBE9C6
:10593000FCE20C942D3585B7806885BF85B78068FB
:1059400085BF84B7877F84BF0FB6F894A8958091F0
:105950006000886180936000109260000FBE80E854
:1059600090E00FB6F89480936100909361000FBEB1
:1059700081E080931F018EEC91E19093E701809389
:10598000E6010E9454080E94F3088091E2008460BE
:105990008093E200789480916C03882399F01091B1
:1059A000E9001F708091EC0080FFCBC080E8182BCD
:1059B0001092E9008091E80083FD0E94E51E1F70AF
:1059C0001093E90082E084BD93E095BD9AEF97BD06
:1059D00080936E000E946115811102C00E94F4162E
:1059E000E0E1F3E088E0DF011D928A95E9F783E0CA
:1059F00080936C0210E060E0812F0E94CF0A61E08A
:105A0000812F0E94CF0A1F5F1330A9F7EFE8F1E062
:105A10003197F1F700C0000010E080916C02181778
:105A200008F491C085E90E94D01184E90E94D01148
:105A300083E90E94D01182E90E94D01105E611E0AD
:105A40009AE6E92E91E0F92ED8018D918D018F3FD4
:105A500011F00E94D011E016F106B1F784E0E9E5FB
:105A6000F2E0DF01282F1D922A95E9F7E4E5F2E044
:105A7000DF011D928A95E9F790E080E00E947C3575
:105A8000833E9E4F21F40E946115811137C063EE61
:105A90007EEF90E080E00E94AA3560E082E090E036
:105AA0000E94903581E08093580261E083E090E0AD
:105AB0000E949035609126017091270184E090E06A
:105AC0000E94AA350E948F1C0E94F41640E050E00C
:105AD000BA018FE090E00E94A23540E050E0BA01A8
